:4000000000800020110000004D0700004D07000008B5044B1A6803F53F5302331A6000F09DFB00BFFA46004010B5054C237833B9044B13B10448AFF300800123237010BD37
:400040005081FF1F00000000A81A0000084B10B51BB108490848AFF300800848036803B910BD074B002BFBD0BDE81040184700BF000000005481FF1FA81A0000C880FF1F6E
:400080000000000038B5012000F01AFE0D4C25786B1C237000F0ACFD0B4B585563782BB9094B187800F042FE0122627000F028FE044B987000F018FE044B1870002000F05C
:4000C000FFFD38BD6C81FF1FDC81FF1F6682FF1F08B5114BDB78C3B9104A1078104B187052785A70002307E09A1C0C49895C0C4A1A4491700133DBB2821E9342F4DB064B3D
:4001000000225A700121D9701A7000F0EDFD002000F0D6FD08BD00BF6C81FF1FDC81FF1F6882FF1F10B5002001F0EEFA114B1B783BB1114B1C7901F0FFFA104B23F8140011
:4001400006E00D4B1C7901F0F7FA0D4B23F81400094A1379013303F01F0313713BB9054A137883F0010313700122034B5A7100F06BFC10BDCC80FF1F6C81FF1FEC82FF1F6E
:40018000AC82FF1F08B5002000F05CFD002000F013FE00F011FD00F0CDFE01F099FA002001F02CFC00F092FC012001F027FC00F0B7FC954800F0C2FC00F038FC01F08CFBB9
:4001C00000F0ECFD00F082FD012000F087FD00F05BFD8E4800F066FD00F04AFD00F00EFE8B4800F019FE00F0FDFD62B601F084FA884BDB78002BFBD0874B5A7887484270F2
:4002000087494A701B7803700B70013A052A00F2F580DFE812F006006E008800A300BF00DC00804B1B78012B2FD17A4A5279012A2BD100227C4B1A700DE0D91C7B4A32F85B
:400240001320774800F8112059000731120A42540133754A1370744B1B781F2BEDD900F0F9FB6F4CA07000F0F5FB000AE07000F0F1FB000C207100F0EDFB000E607100220D
:40028000644B5A71462323702FE073BB614B5B79012B2AD10022644B1A700DE0D91C644A32F813205E4800F8112059000731120A425401335C4A13705B4B1B781F2BEDD9E4
:4002C00000F0C8FB564CA07000F0C4FB000AE07000F0C0FB000C207100F0BCFB000E607100224C4B5A71462323700022494BDA7084E000214C4A11700BE0901C464911442B
:400300008C78464901448C7045490C54013246490A70454A12789342EFD800203D4BD87001F066FB6AE000213F4A11700BE0901C394911448C78394901448C7038490C543D
:40034000013239490A70384A12789342EFD80022304BDA70012001F04BFB4FE00021324A11700BE0901C2C4911448C782B4901448C702B490C5401322B490A702A4A12780D
:400380009342EFD80020234BD87001F037FB00F09DFB33E00021244A11700BE0901C1E4911448C781D4901448C701D490C5401321D490A701C4A12789342EFD80024154B16
:4003C000DC7000F033FB204601F018FB16E00021154A11700BE0901C0F4911448C780F4901448C700E490C5401320F490A700E4A12789342EFD80022064BDA700848017891
:4004000000F00CFCF4E600BF2501000085000000D10000006C81FF1F6882FF1F2482FF1F9481FF1FCC80FF1F6782FF1FAC82FF1FEC82FF1FFEE700BFF0B40022174611E0A4
:4004400050F82760F3B226F0FF0608E001EB420511F812406D78A5550132013BDBB2002BF4D101371F2FEBD9F0BC70470D4B1B78DBB203F007010C4A11701B0901321370DB
:400480000123A2F232721370C0321370102302F69B02137068321370583213704422034B1A707047CF0100496E5800407658004008B50A46002101F0EEFA08BD08B501F0D7
:4004C000DFFA08BD38B50024314B1C80502202331A70192502331D8018232E4A137040F65F11023211800232137004222A492B48FFF7E4FF02222A4B1A7008224FF04023C8
:400500001A70032103F500731970264B1B78DBB225490B70254B1A8041F25122023B1A800CE0234B1B7803F0010343EA440404F003044FF4F07001F067FA013D0DB1032CA4
:40054000EFD115B90320FFF775FF1A4B4FF480721A8007221A70002217490A704820023108701A700222033B1A7004220A331A70124A137843F007031370013A137843F067
:4005800001031370013A137843F08003137038BD804000408640004074070048004100400043004008010049A146004022420040254200400440004006400040A243004000
:4005C000012807D8044B53F820201844017A13780B431370704700BFAC1A0000012808D8044B53F820201844017A137823EA010313707047AC1A000038B572B63D4A13782D
:4006000043F00403137000240BE03B4863001A19510001440A46098AD068FFF749FF0134E4B2092CF1D900240CE03348A20011194B000344B3F85020D96C986CFFF73EFF9C
:400640000134E4B2022CF0D92C494FF09040FFF7F3FE0A252A4B1D7004212A48FFF728FF04212948FFF724FF284A137843F0020313701032137843F002031370244C23786E
:4006800043F040032370A2F58632513A137843F0100313702A461F491F48FFF70FFF08221E491F48FFF70AFF08221E491E48FFF705FF08221D491E48FFF700FF08221D495D
:4006C0001D48FFF7FBFE1D4A137843F0080313701B4D61232B70FFF7F5FE81232B700122184B1A70FFF7C2FE0E2221461648FFF7E5FE38BDE8460040AC1A000080000048BF
:4007000083580040007600400876004003500140A043004048070048C051004054070048F25100405C0700481251004064070048225100406C07004832510040224300408E
:400740000048004004000840B043004008B501F06BF903680C2B00D1FEE7FEE708B5104E104D16E029686B68AC68002204E051F8040B43F8040B0432A242F8D1E868002240
:4007800003E0002143F8041B04328242F9D11035013E002EE6D101F04DF9FFF7F3FCFEE701000000041C000008B5114A114B1A60114A136843F40073136000230AE0032B70
:4007C00003D80E4A52F8231000E00D490D4A42F8231001332F2BF2D90B4B1A780B4B1A70084A0B4B1A60FFF707FF00F013F808BD0004FA050CED00E014ED00E00000000093
:400800004D0700000080FF1FBC760040C080FF1F08ED00E00B4A7F2313708021517007E0DA0002F1804202F5F042013BDBB21370002BF5D1DB0003F1804303F5F04300228A
:400840001A707047D080FF1F172815D831B103010A495A5C42F020025A5405E0030107495A5C02F0DF025A540001044A835C43F00103835400207047012070471070004091
:4008800017280BD80001064A835C03F0F103490001F00E011943815400207047012070471070004041F6FF73994201D14FF4005141F6FF739A4201D14FF40052172808D821
:4008C000C00000F1804000F5EC408180C280002070470120704700BF172805D8034B03EB0010417200207047012070471070004017281BD810B4C00000F1804404F5EC4497
:40090000D201D2B201F07F01114321709DF804201201D2B203F00F03134363709DF8083003F00F03A3700020E07001E00120704710BC704710B501F06FF80A4B5B78182B73
:400940000BD9084A1478013B5370E30003F1804303F5F0431B78137000E0FF2401F060F8204610BDD080FF1F10F0800F0CD111F4704F0BD1C00000F1804000F5F0400180CB
:400980008270C37000207047012070470120704710F0800F08D1C00000F1804000F5F0408180C280002070470120704701BE704708B5034B1B7A00FB03F001F025F808BDC4
:4009C000D880FF1F70B504460E46074B1D681F2802D90020FFF7EAFF04F01F04103455F8240045F8246070BD08ED00E038B504460D46072902D90020FFF7D8FF1F2C02D98F
:400A00000020FFF7D3FF04F01F0000F1604000F564406D01EDB2057038BD00BF024A137843F08003137070477B640040024A137803F07F03137070477B640040014B1870FC
:400A4000704700BF8B640040014B1878704700BF6B640040014B1868704700BF28640040014B1860704700BF28640040014B1868704700BF48640040014B1860704700BFF4
:400A80000864004008B501E0FFF7F0FFFFF7DCFF10F0080FF8D108BD08B541F64B50FFF7DFFF41F64B50FFF7E7FF00F0B5FF064A137843F01003137000F0B2FFFFF7E2FFC0
:400AC0000120FFF7BBFF08BD9B64004008B5054B1B7823B9FFF7E0FF0122024B1A70FFF79DFF08BD7281FF1F704700BF014B1B689864704708ED00E04001C0B2014B18701A
:400B0000704700BF02E400E00422014B1A60704700E100E00422014B1A60704780E100E008B5FFF7F7FF0448FFF7E0FF0720FFF7E3FFFFF7E9FF08BDE90A000010B50446C3
:400B4000FFF7E8FF2046FFF7D1FF0720FFF7D4FFFFF7DAFF10BD00BF7222084B1A70202203F580731A700622A3F25D131A70472210331A70002251331A70704789640040F8
:400B800010B500F049FF04460A4A137843F02003137002F58072137843F010031370FC3A137843F01003137000F044F9204600F037FF10BD9964004008B5054B1B7823B930
:400BC000FFF7CAFF0122024B1A70FFF7D9FF08BD7381FF1F014B1878704700BF49650040024B187800F07F00704700BF6965004010B5FFF7F5FF0402FFF7ECFF204380B25C
:400C000010BD00BF034B1B7813F0040FFAD1024B187070476D6400404D640040084B1B7833B97047305DFFF7EDFF0134E4B203E070B50D4606460024AC42F3D370BD00BFAA
:400C40007381FF1F014B1870704700BF79650040704700BF014B1B681864704708ED00E04001C0B2014B1870704700BF00E400E00122014B1A60704700E100E00122014B1C
:400C80001A60704780E100E008B5FFF7F7FF0448FFF7E0FF0720FFF7E3FFFFF7E9FF08BD510C000010B50446FFF7E8FF2046FFF7D1FF0720FFF7D4FFFFF7DAFF10BD00BF96
:400CC000014B1870704700BF7D640040024A137843F080031370704778640040014B1870704700BF8A640040014B1878704700BF6A640040014B1870704700BF0A650040D5
:400D0000024B1B78024B1878704700BF0A6500404A650040014B1878704700BF4A650040014B1870704700BF2A650040014B1870704700BF3A65004008B501E0FFF7EAFFE2
:400D4000FFF7D2FF10F0400FF8D108BD08B5114B1A7802F0F8021A701A7802F0FC021A70FFF7EAFFFE20FFF7DBFF0020FFF7C2FF0120FFF7B3FFFFF7B7FF8020FFF7D6FF1E
:400D800000F04AFE044A137843F01003137000F047FE08BD786400409A64004008B5054B1B7823B9FFF7D2FF0122024B1A70FFF78DFF08BD7581FF1F014B1870704700BF23
:400DC0007A640040704700BF014B1B685864704708ED00E04001C0B2014B1870704700BF01E400E00222014B1A60704700E100E00222014B1A60704780E100E008B5FFF78F
:400E0000F7FF0448FFF7E0FF0720FFF7E3FFFFF7E9FF08BDC50D000010B50446FFF7E8FF2046FFF7D1FF0720FFF7D4FFFFF7DAFF10BD00BF054A137843F0020313701032ED
:400E4000137843F002031370704700BFA243004010B500F0C7F8074C01212078FFF7F4FC01216078FFF7F0FC002000F0D7F800F06FF810BD7681FF1F70B505460E464FF42F
:400E80008043020C0121084600F070F8094C2070A078012302463146FFF766FD45F68332A9B2A078FFF774FDA1782078FFF714FD70BD00BF7681FF1F70B505460E464FF4D6
:400EC0008043020C0121084600F06EF8094C6070E078012302463146FFF746FD45F68332A9B2E078FFF754FDE1786078FFF7F4FC70BD00BF7681FF1F10B500F0B7F802203A
:400F000000F07EF8002000F0A1F8FFF713FD074CA070FFF70FFDE070054C64212046FFF7ABFF64216018FFF7C7FF10BD7681FF1F141B000008B5054B1B7923B9FFF7DCFFF3
:400F40000122024B1A71FFF783FF08BD7681FF1F054A137843F0040313701032137843F004031370704700BFA2430040F0B583B016461F460B4D00242C7001940094234625
:400F80000A4601462046FFF7B3FC3A4631462878FFF788FC02212878FFF772FC287803B0F0BD00BFE880FF1FF0B583B016461F460B4C012525700023019300930A46014686
:400FC0002846FFF795FC3A4631462078FFF76AFC02212078FFF754FC207803B0F0BD00BFE980FF1F054A137843F0080313701032137843F008031370704700BFA843004008
:40100000054B1A7802F0FD021A701A7800F0020010431870704700BF2C580040014B1870704700BF835B0040064B1B78C3F3810303F19243063393F83831DBB2024A1370E2
:40104000704700BF2C5800400B46004008B5064B1A7802F0F3021A701A7800F00C0010431870FFF7E1FF08BD2C58004008B50020074B187001331870064A137843F0080340
:401080001370FFF7E3FF0220FFF7BAFF08BD00BF2C5800409F5A004038B59DF81040651EEDB2032D51D8013809282ED8DFE800F0052D2D052D2D0F192D230F2B03D9254856
:4010C000007840B222E02448007840B21EE00F2B03D92248007840B218E02148007840B214E00F2B03D91F48007840B20EE01E48007840B20AE00F2B03D91C48007840B294
:4011000004E01B48007840B200E0002001EB401101FB02F2D20B91B20D2B0BD8C3F10E0192B20A4191B2621E124800EB82020133937005E0631E0F4A02EB83030F229A7014
:40114000013C0C4B23F8241038BD0020FFF72EFC38BD00BF180100491C010049190100491D0100491A0100491E0100491B0100491F0100497C81FF1FF8B5074600F04CFC2A
:4011800006460D4D2B7843F003032B700B4C237843F0030323700A4B1F700320FFF708FC2B7803F0FC032B70237803F0FC032370304600F035FCF8BDF8460040F9460040BA
:4011C00092580040F8B504460022C14B1A7401285DD13822BF4B1A70042202331A70062201331A70002501331D7001331D703F2201331A7002331D7001331D7001331D70F8
:4012000001260A331E70502203F527631A70272201331A702C2201331A7001331D70552203331A705A2201331A70052701331F7002331E70112201331A70192201331A705D
:40124000972201331A704420FFF796FF5822A24B1A7001331D7005331F70022201331A7001331D7001331D70284600F0A5FA4FF47A429A4B1A603146384600F0C1FA3146B9
:40128000252000F049FB96491D20FFF79BFB022C5DD138228F4B1A70042202331A70062201331A70002501331D7001331D703F2201331A7002331D7001331D7001331D701E
:4012C00001260A331E70502203F527631A70272201331A702C2201331A7001331D70552203331A705A2201331A70052701331F7002331E70112201331A70192201331A709D
:40130000972201331A704420FFF736FF5822724B1A7001331D7005331F70022201331A7001331D7001331D70284600F045FA4FF47A426A4B1A603146384600F061FA314678
:40134000252000F0E9FA67491D20FFF73BFB032C5DD138225F4B1A70042202331A70062201331A70002501331D7001331D703F2201331A7002331D7001331D7001331D707C
:4013800001260A331E70502203F527631A70272201331A702C2201331A7001331D70552203331A705A2201331A70052701331F7002331E70112201331A70192201331A70DC
:4013C000972201331A704420FFF7D6FE5822424B1A7001331D7005331F70022201331A7001331D7001331D70284600F0E5F94FF47A423A4B1A603146384600F001FA31463A
:40140000252000F089FA38491D20FFF7DBFA042C5DD138222F4B1A70042202331A70062201331A70002401331C7001331C703F2201331A7002331C7001331C7001331C70E0
:4014400001250A331D70502203F527631A70272201331A702C2201331A7001331C70552203331A705A2201331A70052601331E7002331D70112201331A70192201331A7021
:40148000972201331A704420FFF776FE5822124B1A7001331C7005331E70022201331A7001331C7001331C70204600F085F94FF47A420A4B1A602946304600F0A1F929461E
:4014C000252000F029FA09491D20FFF77BFAF8BD7C81FF1F004E0040945800402C83FF1F891700008D17000091170000951700002DE9F04182B0394D4FF0010885F8008067
:40150000374E00247474102000F068F9102000F0F1F907211D20FFF769FA0427314B1F7001331C7007331C702F4A137843F0180313702E4B1C7003F2F5231C7001331C70E2
:401540000A22A3F209331A7001331C7002331C705B2205331A705E2201331A7004331C701422A3F68C231A70CDF8008010234FF4004249F2DA012046FFF78EFD0223009369
:4015800010234FF4004249F2DA012046FFF784FD0323009310234FF4004249F2DA012046FFF77AFD009710234FF4004249F2DA012046FFF771FD2B78013B06EB83039A788F
:4015C0000B4B1A702B78013B36F82320094B1A802878FFF7F7FD02B0BDE8F081EA80FF1F7C81FF1F96580040075B0040935800400E4E00400C4E004070B500F00DFA06463F
:401600002A4B1B782A4B1A7842F001021A701A7842F010021A7010331A7842F001021A701A7842F010021A70224D2B7843F002032B70214C237843F0020323701F4A1378DC
:4016400043F0030313700320FFF7B2F92B7803F0FD032B70237803F0FD032370184A137843F0060313707A22164B1A70164A137843F0010313701032137843F00103137039
:401680000F3A137843F0010313701032137843F0010313704FF000530C4A1360A2F5C0721360304600F0BCF970BD00BFEA80FF1FAA430040F8460040F9460040915800409C
:4016C0007758004082580040A143004080E200E008B5084B9B7C4BB9064BDB7C13F0FF0F01D1FFF705FF0122024B9A74FFF784FF08BD00BF7C81FF1F024A137843F0010307
:4017000013707047004E0040094B1B7C13F0FF0F03D0074B5B7CDBB203E0064B1B7803F00103012B01D00028EED01846704700BF7C81FF1F014E00400E4B1B7803F0030358
:40174000012B03D80C4B188880B209E00A4A12780A49087842EA0020032B01D1084B1B78084B1B7C13F0FF0F02D00022054B5A7400B27047144E0040104E0040114E004018
:40178000124E00407C81FF1F704700BF704700BF704700BF704700BF10B5002404E02046FEF71CFF0134E4B2012CF8D9FF22014B1A7010BDEB80FF1F10B50446FFF7ECFF4D
:4017C0002046FEF7FDFE014B1C7010BDEB80FF1F014B188880B2704780400040034B1A7800F0F80010431870704700BF82400040024B187800F00700704700BF8240004029
:4018000070B505460E46FFF7F3FF0446FFF7E0FFA84256D02B4B1B7803F0010294B900B185B938B9284B1D80284A137803F0BF03137070BD254A137843F040031370224BCF
:401840001D8070BD22B3002321490B7001240F310C7004310B700C390B7803F07F030B701A4B1B7813F0080F00D08DB9194B18800721013B1970164B1B7813F0010FFAD195
:4018800010490B7803F0FE030B700021104B19700C4B1B7813F0010F0DD00E4B1D800EB1032200E001220A4B1A70094B1B7813F0010FFAD170BD044B1D8002490B78134340
:4018C0000B7070BDA2430040804000408240004001400040024000404FF00052014B1A60704700BF00E100E0014B188880B2704700410040034B1A7800F0F800104318708F
:40190000704700BF02410040024B187800F00700704700BF0241004070B505460E46FFF7F3FF0446FFF7E0FFA84256D02B4B1B7803F0010294B900B185B938B9284B1D80CA
:40194000284A137803F0BF03137070BD254A137843F040031370224B1D8070BD22B3002321490B70012413310C7004390B7008390B7803F07F030B701A4B1B7813F0080F9B
:4019800000D08DB9194B18800721013B1970164B1B7813F0010FFAD110490B7803F0FE030B700021104B19700C4B1B7813F0010F0DD00E4B1D800EB1032200E001220A4BFA
:4019C0001A70094B1B7813F0010FFAD170BD044B1D8002490B7813430B7070BDA143004000410040024100400140004002400040014B1870704700BF78650040014B18704D
:401A0000704700BF7C6400400230800803D000BF01380046FCD17047EFF3108072B6704780F31088704700BF014B1868704700BF4C81FF1F0E4B70B51E460E4C0025E41A63
:401A4000A410A54204D056F8253098470135F8E700F0C6F8084B094C1E46E41AA4100025A54204D056F8253098470135F8E770BDEC1B0000EC1B0000EC1B0000F41B00002C
:401A800010B5431E0A44914204D011F8014B03F8014FF8E710BD03460244934202D003F8011BFAE77047000000000000035B00402443004040000000005100401000405123
:401AC00000403000000001408008000901400007001401408004001901400001801A0140800100400140000A004C0140000200500140200080080140C8050048800080180B
:401B00000140480600488000001A0140C80600488000000080878F979FA6AEB5BCC2C9CFD5DBE0E5E9EDF1F4F6F9FAFCFCFCFCFCFAF9F6F4F1EDE9E5E0DBD5CFC9C2BCB589
:401B4000AEA69F978F87807870686059514A433D36302A241F1A16120E0B09060503030303030506090B0E12161A1F242A30363D434A51596068707880848A8F94989EA2E1
:401B8000A8ACB2B6BCC0C6CAD0D5DADEE4E8EEF2F8FCF8F2EEE8E4DEDAD4D0CAC6C0BCB6B2ADA8A29E98948F8A84807A76706B66615D58534E49443E39342F2A25211C171C
:401BC000120D0803080D12171C21252A2F34393E44494E53585D61666B70767A43000000F8B500BFF8BC08BC9E4670474D000000A9070000F8B500BFF8BC08BC9E46704764
:401C000029000000181C0000C880FF1F88000000E00100000000000000000000010000007F800000030000000000E02EC05D00001800000000366E01FFFF01FF000000008F
:401C400000000000000000000000000000000000000000000000000000000000DC1B000000000000000000000000000000000000000000000000000000000000000000006D
:401C800000000000000000000000000000000000000000000000000000000000EC80FF1F00000000000000000000000000000000000000000000000000000000000000009A
:401CC00000000000000000000000000000000000000000000000000000000000000000000000000000000000000000000000000000000000000000000000000000000000E4
:401D000000000000000000000000000000000000000000000000000000000000000000000000000000000000000000000000000000000000000000000000000000000000A3
:401D40000000000000000000000000000000000000000000000000000000000000000000000000000000000000000000000000000000000000000000000000000000000063
:401D80000000000000000000000000000000000000000000000000000000000000000000000000000000000000000000000000000000000000000000000000000000000023
:020000040003F7
:0200000480007A
:4000000003520040015A0040066400400265004001030140020501401E080140410901405C0A01404A0B0140590C0140400D014001150140021701400F1801404819014094
:40004000161A0140431B014006400140084101400642014001430140034401400745014003460140044701400748014002490140044C0140054D01400950014002510140B8
:400080001102608064409F017A017C0189728A678B0D8D0F79018938E642E208E68002020C0116012602320136023E404046410149FF4AFF4BFF4F015018528058045A041E
:4000C0005B045C015D995F016040624064406540668068806A806C806E800084012003040480064008040A020B840E2010A812011620180219201A401E22204822452304A2
:4001000028042B8A2C402F4030423320384239143A014082422044824540464049804A014F2059405A48680269146A1470A877407B02968097509A609B019C209D819E10BD
:40014000A140A310A508A702C097C22FC42FCA0DCC0DCE0FD09BD220D602DE08050209011304170119011E01250431033201330439023F044013410449FF4AFF4BFF4D83B1
:400180004E034F01501854075604580459045A045B045C195D995F056040624064406540668068806A806C806E80830884098510860489018A058B0E8E088F0C9209950CC9
:4001C000960E97139C019E02A502A705AA04AD1FB20FB31FBA08C046C101C5ECC620C80BC9FFCAFFCBFFCD83CE03CF01D018D280D401D604D804D904DA04DB04DC11DD9912
:40020000DF05E040E240E440E540E680E880EA80EC80EE800420060207200A020D010E100F02160819041E10204021012204260C272029042B032F1231013219360439107B
:400240003A083C403D103E1A42604340454046404D044F215620571058205A885D845F0161086211678069406B017640774079407D8087408B109020926093209440961086
:4002800097409A0A9E019F20A140A702B620B740C0E0C2B1C440CA52CC47CEF6D09BD220D6DED887DE18E6800402080314031F012A012D013101320338083E0440034740E4
:4002C00049FF4A074BFF4C404D204EF04F055008580459045A045B045C105D015F09604061A862406320841286088740880389608A1C8B188D128E108F20918093069403ED
:40030000953896089744980399289A089D01A120A740A958AA09AB22AC03AD3EAE04B13EB21FB301B540B780BA08BF54C062C103C5E0C6B0C70CC81AC9FFCAFFCBFFCEF022
:40034000CF44D00CD401D804D904DA04DB04DC11DD11DF0DE6C0EA40EB02005404240504072008100A100B080C040E1010081140160818301A201D08222523022780280433
:400380002A062B022F02302031043281378038603A083B204218450849014A804B205020520453045408560A581059015A085B4068016D806E4079407B027F0287408801C2
:4003C0008B028E01C067C226C443CA1FCC1FCE0ED046D204D60FDE18E640EC01E201EC10010305030903150217091B0429012B0A330C35033F0459045B045C105F0101044E
:400400000288030208400A6810A8120115041620188019201A201B0B20042102231126202718280229202E2031023728380239403E143F0240404202431448444A08500145
:400440005B026004614063C06A406D407B0183018C408E80904092149480975099409A019B459C609D019E10A0ACA440A508A7AEAB04B404B702C00FC20FC40FCA2CCC61D1
:40048000CEE9D00FD204D601D80DDE08EC14820485078907920594049504970199019B06A102A202A301AD07B004B201B307B402BE01D804D904DC19DF0102A80302074038
:4004C00009100A610E200F8010A812011640181019021A481B051C401E201F202004230227202A012B292E012F0232A83301372838803A243E1440544510460447204905D0
:40050000510852505380602061046440650266028A219080923496089A019B499C609D019E329F22A0A8A2A8A34AA508A7A4A802C01FC23FC41FCA9FCC6FCE6ED007EC0144
:400540003012358039013D20CC70CE6084108D8095019C109D80A402A510E640840289019501A402A510E210A5107C087E01DE05584088408A0196029C08D401E00545024C
:400580009C08D00132409C08A502CC08274481109F04A510B704C8A0E280AB40EC809680A808B502EC0811018901AA40C408E601000201010C020D010E02100611011C06E1
:4005C0001D01003F100A00000004000026010800000101000004010830010600260010000002300036040000040000020200000006040000060838000108000426011E02BD
:400600000000800000000144430100000000000000FFFFFF00830301180000000000021204040404111908014000400040408000800080008000800000000000000000003E
:4006400000000000000000006F00000802000000000021000F001002000180040E0070000000020063000C0008000000040000000C0000080E00410580023F0440080001C9
:4006800020000800000000541604030002C000E022FFFFFF62A0F0410C00000018000400040404042111000D00000000000040020010301000101012000000000000000072
:4006C00000000000000000003600000004030000000106000703080006043800300006030602000002030100200000031004000030000003360300003E0000000104000332
:400700000820020000000410420300000002C40E1FFFFFFF00A00001180000000000000004040400110900014000800040408000400050A8402050A8000000000000000016
:4007400000000000000000008000408080008000000000000000000000000100000B0B000000000000020200020000000000000000000100250018010000000000000000DD
:400780000000000000000000000000000000000000000000000000000000000000000000000000000000000000000000000000000000000000000000000000000000000039
:4007C00000000000000000000000000000000000000000000000000000000000000000000000000000000000000000000000000000000000000000000000000000000000F9
:4008000000000000000000000000000000000000000000000000000000000000000000000000000000000000000000000000000000000000000000000000000000000000B8
:400840000000000000000000000000000000000000000000000000000000000000000000000000000000000000000000000000000000000000000000000000000000000078
:0200000490006A
:0400000000004005B7
:0200000490105A
:04000000BC90ACAF55
:0200000490303A
:02000000EAB55F
:0200000490402A
:4000000000000000000000000000000000000000000000000000000000000000000000000000000000000000000000000000000000000000000000000000000000000000C0
:400040000000000000000000000000000000000000000000000000000000000000000000000000000000000000000000000000000000000000000000000000000000000080
:400080000000000000000000000000000000000000000000000000000000000000000000000000000000000000000000000000000000000000000000000000000000000040
:4000C0000000000000000000000000000000000000000000000000000000000000000000000000000000000000000000000000000000000000000000000000000000000000
:0200000490501A
:0C00000000012E16106900012E21FB1ECD
:00000001FF