:400000000080002011000000A9060000A906000008B5044B1A6803F53F5302331A6000F04BFB00BFFA46004010B5054C237833B9044B13B10448AFF300800123237010BDD3
:400040005081FF1F00000000F8190000084B10B51BB108490848AFF300800848036803B910BD074B002BFBD0BDE81040184700BF000000005481FF1FF8190000C880FF1FD0
:400080000000000038B5012000F0C6FD0D4C25786B1C237000F058FD0B4B585563782BB9094B187800F0EEFD0122627000F0D4FD044B987000F0C4FD044B1870002000F004
:4000C000ABFD38BD6C81FF1FDC81FF1F6682FF1F08B5114BDB78C3B9104A1078104B187052785A70002307E09A1C0C49895C0C4A1A4491700133DBB2821E9342F4DB064B91
:4001000000225A700121D9701A7000F099FD002000F082FD08BD00BF6C81FF1FDC81FF1F6882FF1F10B5002001F09AFA114B1B783BB1114B1C7901F0ABFA104B23F8140061
:4001400006E00D4B1C7901F0A3FA0D4B23F81400094A1379013303F01F0313713BB9054A137883F0010313700122034B5A7100F019FC10BDCC80FF1F6C81FF1FEC82FF1F14
:40018000AC82FF1F08B5002000F008FD002000F0BFFD00F0BDFC00F079FE01F045FA002001F0D2FB00F040FC012001F0CDFB00F065FC6C4800F070FC00F0E6FB01F038FBDB
:4001C00000F098FD00F02EFD012000F033FD00F007FD654800F012FD00F0F6FC00F0BAFD624800F0C5FD00F0A9FD62B601F030FA5F4BDB78002BFBD05E494B785E4843701A
:400200005E4A5370097801701170022B21D0032B00F08780012B40F0A0800022584B1A700BE0981C534A1A449478534A02449470524A14540133524A1370514B1B789942E4
:40024000EFD800204A4BD87001F07EFB00F0ECFB83E04C4B1B78012B2FD1454A5279012A2BD10022464B1A700DE0D91C464A32F81320424800F8112059000731120A42543D
:4002800001333F4A13703E4B1B781F2BEDD900F08FFB3A4CA07000F08BFB000AE07000F087FB000C207100F083FB000E607100222F4B5A71462323702FE073BB2C4B5B79AB
:4002C000012B2AD100222E4B1A700DE0D91C2F4A32F81320294800F8112059000731120A42540133264A1370254B1B781F2BEDD900F05EFB214CA07000F05AFB000AE0707E
:4003000000F056FB000C207100F052FB000E60710022174B5A71462323700022144BDA701BE00022164B1A700BE0981C114A1A449478114A02449470104A14540133104A4C
:4003400013700F4B1B789942EFD80024084BDC7000F01AFB204601F0F7FA0848017800F009FC45E72501000085000000D10000006C81FF1F6882FF1F2482FF1F9481FF1FEB
:400380006782FF1FCC80FF1FAC82FF1FEC82FF1FFEE700BFF0B40022174611E050F82760F3B226F0FF0608E001EB420511F812406D78A5550132013BDBB2002BF4D1013734
:4003C0001F2FEBD9F0BC70470D4B1B78DBB203F007010C4A11701B09013213700123A2F232721370C0321370102302F69B02137068321370583213704422034B1A707047A6
:40040000CF0100496E5800407658004008B50A46002101F0E8FA08BD08B501F0D9FA08BD38B50024314B1C80502202331A70192502331D8018232E4A137040F2D961023243
:4004400011800232137004222A492B48FFF7E4FF02222A4B1A7008224FF040231A70032103F500731970264B1B78DBB225490B70254B1A8041F25122023B1A800CE0234B63
:400480001B7803F0010343EA440404F003044FF4F07001F061FA013D0DB1032CEFD115B90320FFF775FF1A4B4FF480721A8007221A70002217490A704820023108701A708D
:4004C0000222033B1A7004220A331A70124A137843F007031370013A137843F001031370013A137843F08003137038BD804000408640004068070048004100400043004047
:4005000008010049A146004022420040254200400440004006400040A2430040012807D8044B53F820201844017A13780B431370704700BFFC190000012808D8044B53F885
:4005400020201844017A137823EA010313707047FC19000038B572B63D4A137843F00403137000240BE03B4863001A19510001440A46098AD068FFF749FF0134E4B2062C81
:40058000F1D900240BE03349A3001819420088180622C16B806BFFF73FFF0134E4B2002CF1D02D494FF09040FFF7F4FE0A252B4B1D7004212A48FFF729FF04212948FFF725
:4005C00025FF294A137843F0020313701032137843F002031370254C237843F040032370A2F58632513A137843F0100313702A461F492048FFF710FF08221F491F48FFF71F
:400600000BFF08221E491F48FFF706FF08221E491E48FFF701FF08221D491E48FFF7FCFE1D4A137843F0080313701C4D61232B70FFF7F6FE81232B700122194B1A70FFF77F
:40064000C3FE0E2221461748FFF7E6FE38BD00BFE8460040FC1900008000004883580040007600400876004003500140A04300403C070048C051004048070048F2510040AE
:40068000500700481251004058070048225100406007004832510040224300400048004004000840B043004008B501F065F903680C2B00D1FEE7FEE708B5104E104D16E0C9
:4006C00029686B68AC68002204E051F8040B43F8040B0432A242F8D1E868002203E0002143F8041B04328242F9D11035013E002EE6D101F047F9FFF745FDFEE701000000AB
:40070000301B000008B5114A114B1A60114A136843F40073136000230AE0032B03D80E4A52F8231000E00D490D4A42F8231001332F2BF2D90B4B1A780B4B1A70084A0B4BDF
:400740001A60FFF707FF00F013F808BD0004FA050CED00E014ED00E000000000A90600000080FF1FBC760040C080FF1F08ED00E00B4A7F2313708021517007E0DA0002F104
:40078000804202F5F042013BDBB21370002BF5D1DB0003F1804303F5F04300221A707047D080FF1F172815D831B103010A495A5C42F020025A5405E0030107495A5C02F085
:4007C000DF025A540001044A835C43F00103835400207047012070471070004017280BD80001064A835C03F0F103490001F00E01194381540020704701207047107000409D
:4008000041F6FF73994201D14FF4005141F6FF739A4201D14FF40052172808D8C00000F1804000F5EC408180C280002070470120704700BF172805D8034B03EB0010417265
:4008400000207047012070471070004017281BD810B4C00000F1804404F5EC44D201D2B201F07F01114321709DF804201201D2B203F00F03134363709DF8083003F00F0378
:40088000A3700020E07001E00120704710BC704710B501F069F80A4B5B78182B0BD9084A1478013B5370E30003F1804303F5F0431B78137000E0FF2401F05AF8204610BDE2
:4008C000D080FF1F10F0800F0CD111F4704F0BD1C00000F1804000F5F04001808270C37000207047012070470120704710F0800F08D1C00000F1804000F5F0408180C2807A
:40090000002070470120704701BE704708B5034B1B7A00FB03F001F01FF808BDD880FF1F70B504460E46074B1D681F2802D90020FFF7EAFF04F01F04103455F8240045F8FD
:40094000246070BD08ED00E038B504460D46072902D90020FFF7D8FF1F2C02D90020FFF7D3FF04F01F0000F1604000F564406D01EDB2057038BD00BF024A137843F0800361
:40098000137070477A640040024A137803F07F03137070477A640040014B1870704700BF88640040014B1878704700BF68640040014B1868704700BF28640040014B186095
:4009C000704700BF28640040014B1868704700BF48640040014B1860704700BF0864004008B501E0FFF7F0FFFFF7DCFF10F0080FF8D108BD08B541F26850FFF7DFFF41F2F9
:400A00006850FFF7E7FF00F0AFFF064A137843F01003137000F0ACFFFFF7E2FF0120FFF7BBFF08BD9864004008B5054B1B7823B9FFF7E0FF0122024B1A70FFF79DFF08BDFA
:400A40007281FF1F704700BF014B1B689864704708ED00E04001C0B2014B1870704700BF02E400E00422014B1A60704700E100E00422014B1A60704780E100E008B5FFF7DA
:400A8000F7FF0448FFF7E0FF0720FFF7E3FFFFF7E9FF08BD450A000010B50446FFF7E8FF2046FFF7D1FF0720FFF7D4FFFFF7DAFF10BD00BF7222074B1A70202202331A705A
:400AC00006229D331A70472210331A70002251331A7070478B64004010B500F045FF04460A4A137843F0200313700232137843F010031370FE32137843F01003137000F031
:400B000045F9204600F034FF10BD00BF9B64004008B5054B1B7823B9FFF7CCFF0122024B1A70FFF7D9FF08BD7381FF1F014B1878704700BF4D640040024B187800F07F00B8
:400B4000704700BF6D64004010B5FFF7F5FF0402FFF7ECFF204380B210BD00BF034B1B7813F0040FFAD1024B187070476B65004048650040084B1B7833B97047305DFFF7E0
:400B8000EDFF0134E4B203E070B50D4606460024AC42F3D370BD00BF7381FF1F014B1870704700BF7C640040704700BF014B1B681864704708ED00E04001C0B2014B1870C3
:400BC000704700BF00E400E00122014B1A60704700E100E00122014B1A60704780E100E008B5FFF7F7FF0448FFF7E0FF0720FFF7E3FFFFF7E9FF08BDA90B000010B504464A
:400C0000FFF7E8FF2046FFF7D1FF0720FFF7D4FFFFF7DAFF10BD00BF014B1870704700BF7D640040024A137843F080031370704779640040014B1870704700BF8965004099
:400C4000014B1878704700BF69650040014B1870704700BF09650040024B1B78024B1878704700BF0965004049650040014B1878704700BF49650040014B1870704700BFC3
:400C800029650040014B1870704700BF3965004008B501E0FFF7EAFFFFF7D2FF10F0400FF8D108BD08B5114B1A7802F0F8021A701A7802F0FC021A70FFF7EAFFFE20FFF7FD
:400CC000DBFF0020FFF7C2FF0120FFF7B3FFFFF7B7FF8020FFF7D6FF00F046FE044A137843F01003137000F043FE08BD796400409965004008B5054B1B7823B9FFF7D2FFF9
:400D00000122024B1A70FFF78DFF08BD7581FF1F014B1870704700BF79650040704700BF014B1B685864704708ED00E04001C0B2014B1870704700BF01E400E00222014B37
:400D40001A60704700E100E00222014B1A60704780E100E008B5FFF7F7FF0448FFF7E0FF0720FFF7E3FFFFF7E9FF08BD1D0D000010B50446FFF7E8FF2046FFF7D1FF0720CA
:400D8000FFF7D4FFFFF7DAFF10BD00BF054A137843F0020313701032137843F002031370704700BFA243004010B500F0C7F8074C01212078FFF7F6FC01216078FFF7F2FC10
:400DC000002000F0D7F800F06FF810BD7681FF1F70B505460E464FF48043020C0121084600F070F8094C2070A078012302463146FFF768FD45F68332A9B2A078FFF776FD34
:400E0000A1782078FFF716FD70BD00BF7681FF1F70B505460E464FF48043020C0121084600F06EF8094C6070E078012302463146FFF748FD45F68332A9B2E078FFF756FDD2
:400E4000E1786078FFF7F6FC70BD00BF7681FF1F10B500F0B7F8022000F07EF8002000F0A1F8FFF715FD074CA070FFF711FDE070054C64212046FFF7ABFF64216018FFF735
:400E8000C7FF10BD7681FF1F401A000008B5054B1B7923B9FFF7DCFF0122024B1A71FFF783FF08BD7681FF1F054A137843F0040313701032137843F004031370704700BFFE
:400EC000A2430040F0B583B016461F460B4D00242C700194009423460A4601462046FFF7B5FC3A4631462878FFF78AFC02212878FFF774FC287803B0F0BD00BFE880FF1F65
:400F0000F0B583B016461F460B4C012525700023019300930A4601462846FFF797FC3A4631462078FFF76CFC02212078FFF756FC207803B0F0BD00BFE980FF1F054A137826
:400F400043F0080313701032137843F008031370704700BFA8430040054B1A7802F0FD021A701A7800F0020010431870704700BF2C580040014B1870704700BF835B004023
:400F8000064B1B78C3F3810303F19243063393F83831DBB2024A1370704700BF2C5800400B46004008B5064B1A7802F0F3021A701A7800F00C0010431870FFF7E1FF08BDE1
:400FC0002C58004008B50020074B187001331870064A137843F008031370FFF7E3FF0220FFF7BAFF08BD00BF2C5800409F5A004038B59DF81040651EEDB2032D51D801386E
:4010000009282ED8DFE800F0052D2D052D2D0F192D230F2B03D92548007840B222E02448007840B21EE00F2B03D92248007840B218E02148007840B214E00F2B03D91F48A3
:40104000007840B20EE01E48007840B20AE00F2B03D91C48007840B204E01B48007840B200E0002001EB401101FB02F2D20B91B20D2B0BD8C3F10E0192B20A4191B2621E4C
:40108000124800EB82020133937005E0631E0F4A02EB83030F229A70013C0C4B23F8241038BD0020FFF730FC38BD00BF180100491C010049190100491D0100491A010049FF
:4010C0001E0100491B0100491F0100497C81FF1FF8B5074600F048FC06460D4D2B7843F003032B700B4C237843F0030323700A4B1F700320FFF70AFC2B7803F0FC032B7063
:40110000237803F0FC032370304600F031FCF8BDF8460040F946004092580040F8B504460022C14B1A7401285DD13822BF4B1A70042202331A70062201331A700025013304
:401140001D7001331D703F2201331A7002331D7001331D7001331D7001260A331E70502203F527631A70272201331A702C2201331A7001331D70552203331A705A22013393
:401180001A70052701331F7002331E70112201331A70192201331A70972201331A704420FFF796FF5822A24B1A7001331D7005331F70022201331A7001331D7001331D70C6
:4011C000284600F0A5FA4FF47A429A4B1A603146384600F0C1FA3146252000F049FB96491D20FFF79DFB022C5DD138228F4B1A70042202331A70062201331A70002501331C
:401200001D7001331D703F2201331A7002331D7001331D7001331D7001260A331E70502203F527631A70272201331A702C2201331A7001331D70552203331A705A220133D2
:401240001A70052701331F7002331E70112201331A70192201331A70972201331A704420FFF736FF5822724B1A7001331D7005331F70022201331A7001331D7001331D7095
:40128000284600F045FA4FF47A426A4B1A603146384600F061FA3146252000F0E9FA67491D20FFF73DFB032C5DD138225F4B1A70042202331A70062201331A70002501336A
:4012C0001D7001331D703F2201331A7002331D7001331D7001331D7001260A331E70502203F527631A70272201331A702C2201331A7001331D70552203331A705A22013312
:401300001A70052701331F7002331E70112201331A70192201331A70972201331A704420FFF7D6FE5822424B1A7001331D7005331F70022201331A7001331D7001331D7065
:40134000284600F0E5F94FF47A423A4B1A603146384600F001FA3146252000F089FA38491D20FFF7DDFA042C5DD138222F4B1A70042202331A70062201331A7000240133BA
:401380001C7001331C703F2201331A7002331C7001331C7001331C7001250A331D70502203F527631A70272201331A702C2201331A7001331C70552203331A705A22013359
:4013C0001A70052601331E7002331D70112201331A70192201331A70972201331A704420FFF776FE5822124B1A7001331C7005331E70022201331A7001331C7001331C703C
:40140000204600F085F94FF47A420A4B1A602946304600F0A1F92946252000F029FA09491D20FFF77DFAF8BD7C81FF1F004E0040945800402C83FF1FE1160000E51600008F
:40144000E9160000ED1600002DE9F04182B0394D4FF0010885F80080374E00247474102000F068F9102000F0F1F907211D20FFF76BFA0427314B1F7001331C7007331C708E
:401480002F4A137843F0180313702E4B1C7003F2F5231C7001331C700A22A3F209331A7001331C7002331C705B2205331A705E2201331A7004331C701422A3F68C231A70A9
:4014C000CDF8008010234FF4004249F2DA012046FFF78EFD0223009310234FF4004249F2DA012046FFF784FD0323009310234FF4004249F2DA012046FFF77AFD009710236B
:401500004FF4004249F2DA012046FFF771FD2B78013B06EB83039A780B4B1A702B78013B36F82320094B1A802878FFF7F7FD02B0BDE8F081EA80FF1F7C81FF1F965800409D
:40154000075B0040935800400E4E00400C4E004070B500F009FA06462A4B1B782A4B1A7842F001021A701A7842F010021A7010331A7842F001021A701A7842F010021A70E2
:40158000224D2B7843F002032B70214C237843F0020323701F4A137843F0030313700320FFF7B4F92B7803F0FD032B70237803F0FD032370184A137843F0060313707A2263
:4015C000164B1A70164A137843F0010313701032137843F0010313700F3A137843F0010313701032137843F0010313704FF000530C4A1360A2F5C0721360304600F0B8F911
:4016000070BD00BFEA80FF1FAA430040F8460040F9460040915800407758004082580040A143004080E200E008B5084B9B7C4BB9064BDB7C13F0FF0F01D1FFF705FF012281
:40164000024B9A74FFF784FF08BD00BF7C81FF1F024A137843F0010313707047004E0040094B1B7C13F0FF0F03D0074B5B7CDBB203E0064B1B7803F00103012B01D00028B9
:40168000EED01846704700BF7C81FF1F014E00400E4B1B7803F00303012B03D80C4B188880B209E00A4A12780A49087842EA0020032B01D1084B1B78084B1B7C13F0FF0F12
:4016C00002D00022054B5A7400B27047144E0040104E0040114E0040124E00407C81FF1F704700BF704700BF704700BF704700BF10B5002404E02046FEF71EFF0134E4B2ED
:40170000012CF8D9FF22014B1A7010BDEB80FF1F10B50446FFF7ECFF2046FEF7FFFE014B1C7010BDEB80FF1F014B188880B2704780400040034B1A7800F0F8001043187070
:40174000704700BF82400040024B187800F00700704700BF8240004070B505460E46FFF7F3FF0446FFF7E0FFA84256D02B4B1B7803F0010294B900B185B938B9284B1D808E
:40178000284A137803F0BF03137070BD254A137843F040031370224B1D8070BD22B3002321490B7001240F310C7004310B700C390B7803F07F030B701A4B1B7813F0080F65
:4017C00000D08DB9194B18800721013B1970164B1B7813F0010FFAD110490B7803F0FE030B700021104B19700C4B1B7813F0010F0DD00E4B1D800EB1032200E001220A4BBC
:401800001A70094B1B7813F0010FFAD170BD044B1D8002490B7813430B7070BDA2430040804000408240004001400040024000404FF00052014B1A60704700BF00E100E0BC
:40184000014B188880B2704700410040034B1A7800F0F80010431870704700BF02410040024B187800F00700704700BF0241004070B505460E46FFF7F3FF0446FFF7E0FFDE
:40188000A84256D02B4B1B7803F0010294B900B185B938B9284B1D80284A137803F0BF03137070BD254A137843F040031370224B1D8070BD22B3002321490B70012413310A
:4018C0000C7004390B7008390B7803F07F030B701A4B1B7813F0080F00D08DB9194B18800721013B1970164B1B7813F0010FFAD110490B7803F0FE030B700021104B1970CD
:401900000C4B1B7813F0010F0DD00E4B1D800EB1032200E001220A4B1A70094B1B7813F0010FFAD170BD044B1D8002490B7813430B7070BDA143004000410040024100403F
:401940000140004002400040014B1870704700BF78640040000000000230800803D000BF01380046FCD17047EFF3108072B6704780F31088704700BF014B1868704700BF9B
:401980004C81FF1F0E4B70B51E460E4C0025E41AA410A54204D056F8253098470135F8E700F0B4F8084B094C1E46E41AA4100025A54204D056F8253098470135F8E770BDD9
:4019C000181B0000181B0000181B0000201B000010B5431E0A44914204D011F8014B03F8014FF8E710BD03460244934202D003F8011BFAE77047000000000000035B004029
:401A0000244300404000000000510040100040510040300000000140001000140140000800400140000A004C01400002005001402000000060520040340700480600000029
:401A400080878F979FA6AEB5BCC2C9CFD5DBE0E5E9EDF1F4F6F9FAFCFCFCFCFCFAF9F6F4F1EDE9E5E0DBD5CFC9C2BCB5AEA69F978F87807870686059514A433D36302A249A
:401A80001F1A16120E0B09060503030303030506090B0E12161A1F242A30363D434A51596068707880878F979FA6AEB5BCC2C9CFD5DBE0E5E9EDF1F4F6F9FAFCFCFCFCFC33
:401AC000FAF9F6F4F1EDE9E5E0DBD5CFC9C2BCB5AEA69F978F87807870686059514A433D36302A241F1A16120E0B09060503030303030506090B0E12161A1F242A30363DEE
:401B0000434A51596068707843000000F8B500BFF8BC08BC9E4670474D00000005070000F8B500BFF8BC08BC9E46704729000000401B0000C880FF1F88000000E0010000D1
:401B400000000000010000007F800000030000000000E02EC05D00001800000000366E01FFFF01FF000000000000000000000000000000000000000000000000000000007C
:401B800000000000081B0000000000000000000000000000000000000000000000000000000000000000000000000000000000000000000000000000000000000000000002
:401BC00000000000EC80FF1F00000000000000000000000000000000000000000000000000000000000000000000000000000000000000000000000000000000000000005B
:401C000000000000000000000000000000000000000000000000000000000000000000000000000000000000000000000000000000000000000000000000000000000000A4
:401C40000000000000000000000000000000000000000000000000000000000000000000000000000000000000000000000000000000000000000000000000000000000064
:401C80000000000000000000000000000000000000000000000000000000000000000000000000000000000000000000000000000000000000000000000000000000000024
:401CC00000000000000000000000000000000000000000000000000000000000000000000000000000000000000000000000000000000000000000000000000000000000E4
:020000040003F7
:0200000480007A
:4000000001520040015A004005640040036500400103014001050140040601400207014060080140440901405F0A0140430B01404C0C0140360D0140031701405C18014083
:4000400048190140511A0140461B0140064001400541014005420140044301400244014003450140044601400547014009480140044C0140074D0140095001400251014064
:4000800011029F0178017C01880D8B728D38790189678B0FE604E20839883F4459045F012422E40401080201040405040602080E090C0C080D2F0E02130215231601170C02
:4000C000180219021A0C1C0E1D0E1F30210F23102721280E290E2B013001313F320E3B023E014056410449FF4AFF4BFF4F01501854015604580459045A045B045C115D996A
:400100005F056040624064406540668068806A806C806E808304850186018F0199029C019F02A104AF01B104B302B401B701BF44C052C104C9FFCAFFCBFFCD83CE03CF01EF
:40014000D018D280D804D904DA04DB04DC11DD99DF01E040E240E440E540E680E880EA80EC80EE8000040482072408400C400F28171018041E401F08208221052740284010
:400180002A802B0C2C402D102F1030803110342035013768384839023C803E2A432147014A024C014E024F205E405F0567806F0372807F028984904A9110920493259480C1
:4001C0009502978098409A2A9B1C9C209F41A110A330A708C0F4C2E1C440CAE9CCFCCEFBD085D238D6D0D880DE10E404010C050C0B0C0D080E010F021B0C1F0C210C25044B
:400200002702290C2B01310C340137033F404052410449FF4AFF4BFF4D834E034F0150185280580459045A045B045C195D995F016040624064406540668068806A806C803C
:400240006E808110850889188D038F0491029503971C991B9D189F03A303A401A501A801A903AC01AD1BB401B51FBB20C056C104C5ECC620C80BC9FFCAFFCBFFCD83CE03E5
:40028000CF01D018D602D711D804D904DA04DB04DC11DD19DE08DF01E040E240E440E540E680E880EA80EC80EE800040048007021540171418081D201F1021402201240485
:4002C0002708286029082B082C812D082F0831203340376A388439123E6A432147014B404F6557305E206D606E046F147001734074207580762A7F028740888089209040EE
:40030000911092409582960298419B209D809E209F48A210A302A420A520A940C001C4E0CAF7CCFCCEFFD085D238D620DE10EC040001071109060B190D070F0810011117DE
:40034000151117061D071F10220224012502280129062D0430023201331E35073B083E04580459045B045C115F0182028301870290019A019B02A402AA02AC02AF01B401D3
:40038000B501B602B702B880BF50C062C105C203C401C7ECC830C9FFCAFFCBFFCC62CDA0CEF0CF41D00CD418D604D804D904DA04DB04DC01DD11DF0DE640E702E910EA30FD
:4003C000EB10ED10EE10EF12034007400A480C030D01100113281510172919401A081E601F02200422802620272429402C202D802E20322034013748380A3D103E44416083
:400400004204430448024A0450055A025E085F086044628069406F0178407B028040C018C21AC477CA78CCD4CE73D00ED20CD601D80DDE08B411E204EC1001010302040162
:4004400005030903110F1310150C1601177019481B201D021F0123402401250C272028022B242D0C2F203103357C360338803B204032410645EC470B481349FF4AFF4BFFE7
:400480004EF04F44500C580459045A045C115D015F0966C06A406B02830384028C029102A201B101B302B401B602B880BE40BF04C051C106C502C6C4C70EC81FC9FFCAFF75
:4004C000CBFFCDA0CF01D018D407D604D804D904DA04DB04DC99DD99DF05E040E280E440E540E680E840EA50EBA8EC40ED20EE50EFA80004014004080E2010801608170497
:40050000180519101F4021022204248027442C042D042F423102361037453B023D203E06400144C446084705480149044A084B024C044D064F145080521457085810598025
:400540005A08621564106504694079407C8082018B1292049480984099809C209D11A001A110A208A480B608C025C220C468CAF0CCF1CEE1D068D22CD60ED807DE18E84034
:40058000EC500309070E08030B0814021509170418031B041D102101230226012B053110350F360338803B203E403F014001464049FF4A074BFF4C404D204EF04F05500850
:4005C000580459045A045C105D015F09604061A86240632080208401860E87208802892C8A058B11911C9322940C95309613970C981099109C5F9F03A109A20CA310A72047
:40060000A914AA08AD1FAE40B040B21FB320B420B71FBE10BF04D401D804D904DB04DC11DD10DF05030404040502070409380C600E2010201521160218011D091E28200474
:40064000212022012504268028442C202D412E082F48302031083280340436A23704380439213D203F1440014820511052205DA25E0865206704784079407D40810882029C
:4006800086018C208D848E0293849710984099029B049C209D019E0AA308A610C072C2E6C4D4CAF5CCFECE67D008D6F0DE18E4023002311035803C40CC70CE208110944056
:4006C0009D90A402E620840294409D80A402E210804094409D80E4207C20DE0153019C20D40145029C20AB01D001338083809C20A502CC0824402704818094409D809F046C
:40070000B704C8A0E220B420B502E802EC081280740484048E80C408DE04E202000201010C020D010E02100211011C021D01003F1002000080800000400000008000408098
:4007400080008000000000000000000000000100000B0B0000000000000202000200000000000000000001002500180100000000000000000000000000000000000000001D
:400780000000000000000000000000000000000000000000000000000000000000000000000000000000000000000000000000000000000000000000000000000000000039
:4007C00000000000000000000000000000000000000000000000000000000000000000000000000000000000000000000000000000000000000000000000000000000000F9
:4008000000000000000000000000000000000000000000000000000000000000000000000000000000000000000000000000000000000000000000000000000000000000B8
:400840000000000000000000000000000000000000000000000000000000000000000000000000000000000000000000000000000000000000000000000000000000000078
:0200000490006A
:0400000000004005B7
:0200000490105A
:04000000BC90ACAF55
:0200000490303A
:02000000FEA65A
:0200000490402A
:4000000000000000000000000000000000000000000000000000000000000000000000000000000000000000000000000000000000000000000000000000000000000000C0
:400040000000000000000000000000000000000000000000000000000000000000000000000000000000000000000000000000000000000000000000000000000000000080
:400080000000000000000000000000000000000000000000000000000000000000000000000000000000000000000000000000000000000000000000000000000000000040
:4000C0000000000000000000000000000000000000000000000000000000000000000000000000000000000000000000000000000000000000000000000000000000000000
:0200000490501A
:0C00000000012E16106900012E220F0FC7
:00000001FF